:020000040000FA
:100000000C945D000C9485000C9485000C944A06B9
:100010000C944A060C944A060C9485000C948500B6
:100020000C9485000C9485000C9485000C9485003C
:100030000C9485000C9485000C9485000C9485002C
:100040000C9400060C9485000C94CE050C94A80525
:100050000C9485000C9485000C9485000C9485000C
:100060000C9485000C9485000000000024002700FB
:100070002A0000000000250028002B0004040404CE
:100080000404040402020202020203030303030342
:10009000010204081020408001020408102001021F
:1000A00004081020000000080002010000030407FB
:1000B0000000000000000000540611241FBECFEF16
:1000C000D8E0DEBFCDBF11E0A0E0B1E0EAECF8E19E
:1000D00002C005900D92A237B107D9F722E0A2E73E
:1000E000B1E001C01D92AB3FB207E1F710E0CDE5F2
:1000F000D0E004C02197FE010E94290BCC35D10726
:10010000C9F70E941F070C94630C0C940000862F03
:10011000E0918601F0918701309711F0BA010994BE
:100120000895862FE0918401F0918501309711F0B8
:10013000BA0109940895862FE0918201F09183011C
:10014000309711F0BA0109940895862FE09180014B
:10015000F0918101309711F0BA0109940895862F2A
:10016000E0917E01F0917F01309711F0BA0109947E
:100170000895862FE0917C01F0917D01309711F078
:10018000BA0109940895089508950895CF93DF93CF
:10019000FC01A081B181109701F1EC01ED91FC917E
:1001A00011970190F081E02D69EFCD0109958881CB
:1001B0009981DC01ED91FC910190F081E02D62E0EC
:1001C000099588819981DC01ED91FC910190F08184
:1001D000E02D65E0DF91CF910994DF91CF910895F3
:1001E0001F93CF93DF93182FEB0180917C029091A6
:1001F0007D026817790760F480917A0290917B0202
:10020000C80FD91F188380E0DF91CF911F91089507
:10021000E091A902F091AA02309711F481E0F4CFA5
:1002200081E08093790280919502909196020995E0
:1002300080917C0290917D02C817D90778F7DCCFB6
:10024000CF93DF93EC01FB0130E020E0C901880F80
:10025000991F8C179D0778F44081DB014D93BD01F8
:1002600011979181979599279795942B9C932F5F40
:100270003F4F3296EBCFC901DF91CF910895E82F20
:10028000F0E0E557FE4F6083823021F41092930135
:10029000109292010895009721F0805C9F4F0C947A
:1002A000C6000895AF92BF92CF92DF92EF92FF9275
:1002B0000F931F93CF93DF936C017B018B01040F8E
:1002C000151FEB015E01AE18BF08C017D10759F02A
:1002D0006991D601ED91FC910190F081E02DC6016C
:1002E0000995892B79F7C501DF91CF911F910F9166
:1002F000FF90EF90DF90CF90BF90AF900895FC01FA
:10030000538D448D252F30E0842F90E0821B930B7A
:10031000541710F0CF96089501970895FC01918D20
:10032000828D981761F0A28DAE0FBF2FB11D5D9623
:100330008C91928D9F5F9F73928F90E008958FEFC5
:100340009FEF0895FC01918D828D981731F0828D79
:10035000E80FF11D858D90E008958FEF9FEF0895D0
:10036000FC01918D228D892F90E0805C9F4F821B34
:1003700091098F73992708958AE991E00E94B0014D
:1003800021E0892B09F420E0822F089580E090E09D
:10039000892B29F00E94BC0181110C940000089562
:1003A000FC01A48DA80FB92FB11DA35ABF4F2C91EA
:1003B000848D90E001968F739927848FA689B789E1
:1003C0002C93A089B1898C91837080648C93938DD8
:1003D000848D981306C00288F389E02D80818F7D7B
:1003E00080830895EF92FF920F931F93CF93DF9333
:1003F000EC0181E0888F9B8D8C8D98131AC0E88961
:10040000F989808185FF15C09FB7F894EE89FF892F
:100410006083E889F98980818370806480839FBFCD
:1004200081E090E0DF91CF911F910F91FF90EF90CD
:100430000895F62E0B8D10E00F5F1F4F0F731127DD
:10044000E02E8C8D8E110CC00FB607FCFACFE88918
:10045000F989808185FFF5CFCE010E94D001F1CFCF
:10046000EB8DEC0FFD2FF11DE35AFF4FF0829FB78C
:10047000F8940B8FEA89FB8980818062CFCFCF937C
:10048000DF93EC01888D8823B9F0AA89BB89E889BC
:10049000F9898C9185FD03C0808186FD0DC00FB662
:1004A00007FCF7CF8C9185FFF2CF808185FFEDCFE0
:1004B000CE010E94D001E9CFDF91CF91089590E065
:1004C000FC01EC55FF4F2491FC01E057FF4F3491A4
:1004D000FC01E458FF4FE491EE23C9F0222339F0E8
:1004E000233001F1A8F4213019F1223029F1F0E094
:1004F000EE0FFF1FEE58FF4FA591B4918FB7F89400
:10050000EC91611126C030953E233C938FBF089536
:100510002730A9F02830C9F0243049F780918000B5
:100520008F7D03C0809180008F7780938000DFCF24
:1005300084B58F7784BDDBCF84B58F7DFBCF809171
:10054000B0008F778093B000D2CF8091B0008F7DC4
:10055000F9CF3E2BDACFCF93DF9390E0FC01E05749
:10056000FF4F249184589F4FFC0184918823D1F040
:1005700090E0880F991FFC01E859FF4FA591B491B5
:10058000FC01EE58FF4FC591D49161110EC09FB789
:10059000F8948C91E22FE0958E238C932881E223AE
:1005A000E8839FBFDF91CF9108958FB7F894EC91C6
:1005B000E22BEC938FBFF6CF3FB7F8948091780190
:1005C00090917901A0917A01B0917B0126B5A89B09
:1005D00005C02F3F19F00196A11DB11D3FBFBA2FD5
:1005E000A92F982F8827BC01CD01620F711D811D95
:1005F000911D42E0660F771F881F991F4A95D1F71A
:1006000008958F929F92AF92BF92CF92DF92EF9216
:10061000FF926B017C010E94DC024B015C01C11462
:10062000D104E104F104B9F00E94DC0268197909EF
:100630008A099B09683E73408105910580F321E09A
:10064000C21AD108E108F10888EE880E83E0981EEE
:10065000A11CB11CE4CFFF90EF90DF90CF90BF9032
:10066000AF909F908F9008955F926F927F928F923C
:100670009F92AF92BF92CF92DF92EF92FF920F9331
:100680001F93CF93DF935C016901DA015C90232B08
:1006900019F4CC24CA94DC2C8A013A01660E771E28
:1006A000D0E0C0E0F12CE12C87E0882E912CF50100
:1006B00080819181D8016C910C2E01C0660F0A9443
:1006C000EAF765296F77DC01ED91FC910190F081EB
:1006D000E02D0995BFEFEB1AFB0AF801608170E08D
:1006E000C4018C1B9D0B02C0759567958A95E2F736
:1006F000562E2196C730D10558F1CE14DF0441F1B2
:10070000D5018D919C91652D6F77DC01ED91FC9168
:100710000190F081E02D0995BFEFEB1AFB0A551C03
:100720005524551C2797E6CFEC14FD0408F4BFCFE1
:10073000DF91CF911F910F91FF90EF90DF90CF90BD
:10074000BF90AF909F908F907F906F905F90089533
:100750000F5F1F4F6016710639F7209749F3EC14AD
:10076000FD0430F7F5018081918161E070E001C006
:10077000660FCA95EAF761506521DC01ED91FC91A5
:100780000190F081E02DDF91CF911F910F91FF90AB
:10079000EF90DF90CF90BF90AF909F908F907F9021
:1007A0006F905F900994CF93DF9300D0CDB7DEB701
:1007B0007A836983A0917702B09178021097A9F0AB
:1007C000682F6069ED91FC9111970190F081E02D07
:1007D000CD01099522E030E0AE014F5F5F4F62E04E
:1007E00070E087E792E00E9434030F900F90DF9152
:1007F000CF910895CF92DF92EF92FF920F931F93C4
:10080000CF93DF93FC01E058FF4FE080EE2009F426
:100810005CC0EC01C05CDF4FA881B981109709F47E
:1008200054C0FC01EF57FF4FC080D180F601118109
:100830000081ED91FC9111970190F081E02D60EF26
:10084000CD01099588819981DC01ED91FC910190A0
:10085000F081E02D69E7099588819981DC01ED91AE
:10086000FC910190F081E02D602F0995888199819C
:10087000DC01ED91FC910190F081E02D612F099553
:10088000F12C01E010E00F5F1F4FE016F10659F068
:1008900030E020E0A601400F511F61E070E0CE0182
:1008A0000E943403F0CF88819981DC01ED91FC91A5
:1008B0000190F081E02D67EFDF91CF911F910F91B3
:1008C000FF90EF90DF90CF900994DF91CF911F912F
:1008D0000F91FF90EF90DF90CF900895009711F067
:1008E0000C94FA03089521E030E0A90102C0440FFE
:1008F000551F8A95E2F7CA01209192013091930128
:10090000672B49F4809590958223932390939301CC
:10091000809392010895822B932BF8CF813051F070
:1009200018F0823049F008958BB16C7F8370682B8A
:100930006BB9089565B9089568B90895FF920F934A
:100940001F93CF93DF93883058F128E0F22EC1E057
:100950008E3038F09EE0F92EC2E0863110F0F12C96
:10096000C0E0D82F082F10E06130710509F1633025
:10097000710509F1672B91F560E00E94AB02EC2F45
:10098000F0E0E857FE4F0F19110981E090E001C037
:10099000880F0A95EAF7809590818923808302C0A9
:1009A0008230E8F6DF91CF911F910F91FF9008956B
:1009B00060E00E945F0261E08D2F0E94AB02EC2F8D
:1009C000F0E0E857FE4F0F19110921E030E001C0B7
:1009D000220F0A95EAF78081822BE0CF809177027F
:1009E000909178020097F1F2DC01ED91FC91019079
:1009F000F081E02D60EF0995809177029091780267
:100A0000DC01ED91FC910190F081E02D61E7099509
:100A10008091770290917802DC01ED91FC91019038
:100A2000F081E02D67EFDF91CF911F910F91FF9043
:100A300009941F93CF93DF93182FEB0163E070E0CD
:100A40000E949E0461E0812F0E94AB02209739F43E
:100A500060E0812FDF91CF911F910C945F02CF3F17
:100A6000D10511F461E0F5CFE12FF0E0EC55FF4F37
:100A7000E491E33031F140F4E130B1F0E230E1F003
:100A8000C038D1057CF7E4CFE73029F1E83059F1DF
:100A9000E430B1F780918000806280938000D09331
:100AA0008B00C0938A0004C084B5806884BDC7BD34
:100AB000DF91CF911F91089584B5806284BDC8BD38
:100AC000F7CF80918000806880938000D093890068
:100AD000C0938800EDCF8091B00080688093B00013
:100AE000C093B300E5CF8091B00080628093B000E6
:100AF000C093B400DDCFEF92FF920F931F93CF937B
:100B0000DF93082F10E0F801E857FE4FC081C09531
:100B1000C6230E581E4FF80190819C1791F0D82FD4
:100B2000EC2EF12CB7010E94D303F801C083B7016A
:100B30008D2FDF91CF911F910F91FF90EF900C942B
:100B4000D303DF91CF911F910F91FF90EF90089504
:100B50001F920F920FB60F9211242F933F934F9332
:100B60005F936F937F938F939F93AF93BF93EF9315
:100B7000FF938AE991E00E94D001FF91EF91BF912C
:100B8000AF919F918F917F916F915F914F913F9125
:100B90002F910F900FBE0F901F9018951F920F92DC
:100BA0000FB60F9211242F938F939F93EF93FF9380
:100BB000E091AA01F091AB018081E091B001F09148
:100BC000B10182FD1BC090818091B3018F5F8F7353
:100BD0002091B401821741F0E091B301F0E0E656B4
:100BE000FE4F958F8093B301FF91EF919F918F916D
:100BF0002F910F900FBE0F901F9018958081F4CF0A
:100C00001F920F920FB60F9211242F933F938F9341
:100C10009F93AF93BF9380918E0190918F01A0918C
:100C20009001B09191013091770123E0230F2D378E
:100C300058F50196A11DB11D2093770180938E0177
:100C400090938F01A0939001B093910180917801CE
:100C500090917901A0917A01B0917B010196A11D3B
:100C6000B11D8093780190937901A0937A01B0939C
:100C70007B01BF91AF919F918F913F912F910F90E9
:100C80000FBE0F901F90189526E8230F0296A11D06
:100C9000B11DD2CF1F920F920FB60F9211240F9059
:100CA0000FBE0F901F901895EAE9F1E013821282AF
:100CB00088EE93E0A0E0B0E084839583A683B783B9
:100CC0008AE091E09183808385EC90E0958784872A
:100CD00084EC90E09787868780EC90E0918B808B06
:100CE00081EC90E0938B828B82EC90E0958B848BEF
:100CF00086EC90E0978B868B118E128E138E148E5D
:100D000087E392E0109278021092770290937B0230
:100D100080937A0220E430E030937D0220937C02BD
:100D200010927E0210927F02109281021092800235
:100D30001092820210928402109283021092860214
:100D400010928502109288021092870210928A02F5
:100D50001092890210928C0210928B0210928E02D5
:100D600010928D021092900210928F0210929602B1
:100D700010929502109298021092970210929A0285
:100D80001092990210929C0210929B021092AA0259
:100D90001092A902109279021092B7021092B90231
:100DA0001092B8021092F60227E830E030939E02CB
:100DB00020939D0221E930E03093A00220939F020E
:100DC0002BE930E03093A2022093A10225EA30E023
:100DD0003093A4022093A3022FEA30E03093A602BE
:100DE0002093A50229EB30E03093A8022093A702BC
:100DF00023EC30E03093AC022093AB0224EC30E0E3
:100E00003093AE022093AD022EE634E03093B00270
:100E10002093AF0290939202809391022BE431E0F1
:100E20003093B2022093B102909394028093930284
:100E300085EC90E09093B4028093B3020895CF9331
:100E4000DF9300D0CDB7DEB7789484B5826084BDDF
:100E500084B5816084BD85B5826085BD85B58160BE
:100E600085BD80916E00816080936E00109281003C
:100E700080918100826080938100809181008160F7
:100E800080938100809180008160809380008091B8
:100E9000B10084608093B1008091B0008160809344
:100EA000B00080917A00846080937A0080917A000B
:100EB000826080937A0080917A00816080937A00CA
:100EC00080917A00806880937A001092C10085E159
:100ED0008093B7028091B8029091B9020E94CB0B27
:100EE0000091B70210E0C80101960E942F0B909369
:100EF000B9028093B802FC01E00FF11F108222E0DA
:100F0000DC012C9311961C92A801425051096DE509
:100F100071E002960E94540C89E195E0909387015C
:100F2000809386018EE894E09093850180938401FC
:100F300083E794E090938301809382018FE391E0B3
:100F400090938101809380018EE994E090937F01DA
:100F500080937E0183E08093880180EC80938901F7
:100F600010928A0110E061E070E0812F0E949E04DF
:100F70001F5F1E30C1F715B818B81BB810928B014F
:100F800010928C0110928D01E091AA01F091AB01B9
:100F900082E08083E091A601F091A7011082E091A8
:100FA000A801F091A90180E180831092B201E09143
:100FB000AE01F091AF0186E08083E091AC01F09149
:100FC000AD01808180618083E091AC01F091AD0141
:100FD000808188608083E091AC01F091AD018081D7
:100FE00080688083E091AC01F091AD0180818F7DBC
:100FF00080838091F60281114FC061E08DE00E94F4
:10100000AB0262ED70E080E090E00E94010361E0DD
:101010008DE00E945F0268E270E080E090E00E9454
:10102000010360E08DE00E945F0262ED70E080E00D
:1010300090E00E94010361E08DE00E945F0268E29F
:1010400070E080E090E00E94010360E08DE00E948B
:101050005F026AEF70E080E090E00E94010315E01B
:1010600062ED70E080E090E00E94010361E08DE0BD
:101070000E945F0268E270E080E090E00E9401035D
:1010800060E08DE00E945F02115051F76DE770E063
:1010900080E090E00E9401038AE991E09093B6021B
:1010A0008093B502909378028093770287E792E06D
:1010B0000E94C60087E392E00E94FA03BB24B39427
:1010C00000E010E092E0E92EF12CCC24C394D12C66
:1010D0008BE8882E81E0982EA12CF40181914F019C
:1010E000882369F0F1E0AF1609F480C022E0A2166F
:1010F00009F47FC069B16C7F80E00E947B05A394F6
:1011000043E0A412EACF8FB7F89440918E0150913A
:101110008F0160919001709191018FBF8091960134
:1011200090919701A0919801B0919901481B590B9A
:101130006A0B7B0B453151056105710508F47DC2D1
:101140004496A11DB11D8093960190939701A093A1
:101150009801B09399018091B5029091B602DC019B
:10116000ED91FC910084F185E02D0995892B09F41E
:10117000D4C18091B5029091B602DC01ED91FC9151
:101180000284F385E02D09959C018F3F980719F3A0
:10119000982F80918202882309F498C0973F09F024
:1011A00084C010928202A0917A02B0917B026C916D
:1011B0006137F1F1693709F062C0E091AF02F09157
:1011C000B002309741F28091830290918402833083
:1011D000910590F430E020E050E040E070E060E005
:1011E00080919102909192020995B5CF63B181E00F
:1011F00084CF66B182E081CFBD016D5F7F4F0397E1
:101200000E942001BC016D5F7F4F80E00E94F000D2
:10121000E0917A02F0917B029F012D5F3F4F428166
:1012200050E0618170E0E091AF02F091B002D8CF60
:101230008091AB029091AC02892B09F48CCFBD0157
:101240006F5F7F4F809183029091840201970E948B
:101250002001BC016F5F7F4F80E00E94F000609131
:101260007A0270917B026F5F7F4FE091AB02F09149
:10127000AC02809197029091980209956CCFE09111
:10128000AD02F091AE02309709F465CF9D012F5F5A
:101290003F4F409183025091840241505109809107
:1012A000990290919A02099556CF609183027091AC
:1012B0008402822F0E94F000809183029091840228
:1012C0000196909384028093830245CF60918002BF
:1012D000709181026115710509F4B1C027FDAFC09D
:1012E000615071097093810260938002822F0E9485
:1012F000F0008091800290918102892B09F02BCF20
:1013000080917E02882309F426CF803D09F483C0B2
:1013100040F4803949F1803C09F469C010927E02A2
:101320001ACF843FE1F1853F09F44DC0803EB1F70B
:10133000E0919D02F0919E02309781F3A0917A0294
:10134000B0917B024C9120E8429FC001112411967C
:101350004C91480F592F511D60917F028091850259
:10136000909186020995DACFE0919F02F091A00258
:101370003097A1F2A0917A02B0917B024C9120E8C3
:10138000429FC001112411964C91480F592F511DB5
:1013900060917F028091870290918802E3CFE09173
:1013A000A502F091A602309709F4B8CFA0917A0275
:1013B000B0917B024C9150E011966C9180918D021E
:1013C00090918E02CFCFE091A702F091A8023097C2
:1013D00009F4A4CFA0917A02B0917B024C9150E025
:1013E00011966C9180918F0290919002BBCFE09109
:1013F000A102F091A202309709F490CFA0917A0255
:10140000B0917B024C9150E060917F028091890203
:1014100090918A02A7CFE091A302F091A4023097A5
:1014200009F47CCFA0917A02B0917B024C9150E0FC
:1014300060917F0280918B0290918C0293CF903FBC
:1014400030F4822F8F7080937F02922F907F903F95
:10145000F1F190F4903CB1F150F4903909F07BCE69
:10146000F0928102E092800290937E0274CE903DD1
:1014700049F1903EA9F36FCE993F09F442C028F498
:101480008CE0890F823060F366CE9F3F09F063CE17
:10149000109281021092800210927E0210927F02BE
:1014A00090E080E020917C0230917D0282179307CA
:1014B000A8F4E0917A02F0917B02E80FF91F108204
:1014C0000196F0CFD0928102C0928002CDCFB0922F
:1014D000820210928402109283023DCE1092820208
:1014E0001092840210928302E091B302F091B40250
:1014F00080919B0290919C02309709F42CCE099523
:101500002ACEE091B102F091B202309709F423CED5
:101510008091930290919402F2CF109295011092D3
:1015200094012091940130919501263031050CF001
:1015300084C08091920190919301022E02C09595F2
:1015400087950A94E2F780FF3CC0822F2E3010F07E
:1015500082EF820F8770806480937C0080917A0094
:10156000806480937A0080917A0086FDFCCF809120
:10157000780020917900A0909401322F282F3A838F
:10158000298380917702909178020097D1F0DC0155
:10159000ED91FC910190F081E02DBFE0BA15D8F0FB
:1015A00021153044C0F46A2D606E099522E030E0C8
:1015B000AE014F5F5F4F62E070E087E792E00E940C
:1015C0003403809194019091950101969093950137
:1015D00080939401A6CF60EF099580917702909156
:1015E0007802DC01ED91FC910190F081E02D6FE635
:1015F00009958091770290917802DC01ED91FC9140
:101600000190F081E02D6A2D099522E030E0AE01D5
:101610004F5F5F4F62E070E087E792E00E94340323
:101620008091770290917802DC01ED91FC9101901C
:10163000F081E02D67EF0995C4CF0115110509F47C
:1016400047CD0E94BC01882309F442CD0E940000CE
:101650003FCDEE0FFF1F0590F491E02D09940F93FD
:101660001F93CF93DF938230910510F482E090E0D6
:10167000E091F902F091FA0230E020E0B0E0A0E061
:10168000309799F42115310509F44AC0281B390B0C
:1016900024303105D8F58A819B816115710589F166
:1016A000FB0193838283FE0111C04081518102813D
:1016B000138148175907E0F04817590799F4109714
:1016C00061F012960C93129713961C933296CF01E9
:1016D000DF91CF911F910F9108950093F90210931C
:1016E000FA02F4CF2115310551F04217530738F0B3
:1016F000A901DB019A01BD01DF01F801C1CFEF01B2
:10170000F9CF9093FA028093F902CDCFFE01E20F58
:10171000F31F819391932250310939832883D7CFC6
:101720002091F7023091F802232B41F4209102011D
:10173000309103013093F8022093F70220910001C9
:10174000309101012115310541F42DB73EB740918B
:10175000040150910501241B350BE091F702F09133
:10176000F802E217F307A0F42E1B3F0B28173907E6
:1017700078F0AC014E5F5F4F2417350748F04E0FED
:101780005F1F5093F8024093F702819391939FCF8C
:10179000F0E0E0E09CCFCF93DF930097E9F0FC010D
:1017A000329713821282A091F902B091FA02ED01F0
:1017B00030E020E01097A1F420813181820F931F47
:1017C0002091F7023091F8022817390709F061C01B
:1017D000F093F802E093F702DF91CF910895EA01C8
:1017E000CE17DF07E8F54A815B819E01411551055F
:1017F000B1F7E901FB83EA8349915991C40FD51FE1
:10180000EC17FD0761F4808191810296840F951F8A
:10181000E90199838883828193819B838A83F0E0A5
:10182000E0E012968D919C9113970097B9F52D9158
:101830003C911197CD010296820F931F2091F702E0
:101840003091F8022817390739F6309751F5109280
:10185000FA021092F902B093F802A093F702BCCFFB
:10186000D383C28340815181840F951FC817D90744
:1018700061F44E5F5F4F88819981480F591F5183F2
:1018800040838A819B81938382832115310509F0EE
:10189000B0CFF093FA02E093F9029ECFFD01DC0194
:1018A000C0CF13821282D7CFFB01DC0141505040E0
:1018B00048F001900D920020C9F701C01D924150DF
:1018C0005040E0F70895F894FFCF0000FB0280003D
:1018D00000000000F20152017F013F02B0018E01C1
:1018E000A201433A5C55736572735C5669746F72FA
:1018F0005C4465736B746F705C666163756C646186
:1019000064655C5443435C496D706C656D656E74D1
:1019100061C3A7C3A36F5C5374616E646172644654
:1019200069726D6174615C5374616E646172644666
:0C19300069726D6174612E696E6F0000B9
:107E0000112484B714BE81FFF0D085E080938100F7
:107E100082E08093C00088E18093C10086E0809377
:107E2000C20080E18093C4008EE0C9D0259A86E02C
:107E300020E33CEF91E0309385002093840096BBD3
:107E4000B09BFECF1D9AA8958150A9F7CC24DD24C4
:107E500088248394B5E0AB2EA1E19A2EF3E0BF2EE7
:107E6000A2D0813461F49FD0082FAFD0023811F036
:107E7000013811F484E001C083E08DD089C08234E0
:107E800011F484E103C0853419F485E0A6D080C0E4
:107E9000853579F488D0E82EFF2485D0082F10E0AE
:107EA000102F00270E291F29000F111F8ED06801E7
:107EB0006FC0863521F484E090D080E0DECF843638
:107EC00009F040C070D06FD0082F6DD080E0C81688
:107ED00080E7D80618F4F601B7BEE895C0E0D1E017
:107EE00062D089930C17E1F7F0E0CF16F0E7DF06D8
:107EF00018F0F601B7BEE89568D007B600FCFDCFD4
:107F0000A601A0E0B1E02C9130E011968C91119780
:107F100090E0982F8827822B932B1296FA010C0160
:107F200087BEE89511244E5F5F4FF1E0A038BF0790
:107F300051F7F601A7BEE89507B600FCFDCF97BE46
:107F4000E89526C08437B1F42ED02DD0F82E2BD052
:107F50003CD0F601EF2C8F010F5F1F4F84911BD097
:107F6000EA94F801C1F70894C11CD11CFA94CF0C13
:107F7000D11C0EC0853739F428D08EE10CD085E9AC
:107F80000AD08FE07ACF813511F488E018D01DD067
:107F900080E101D065CF982F8091C00085FFFCCF94
:107FA0009093C60008958091C00087FFFCCF809118
:107FB000C00084FD01C0A8958091C6000895E0E648
:107FC000F0E098E1908380830895EDDF803219F02E
:107FD00088E0F5DFFFCF84E1DECF1F93182FE3DFCA
:107FE0001150E9F7F2DF1F91089580E0E8DFEE27F6
:047FF000FF270994CA
:027FFE00040479
:00000001FF
