:020000040000FA
:100000000C945D000C9485000C9485000C943805CC
:100010000C9438050C9438050C9485000C948500DC
:100020000C9485000C9485000C9485000C9485003C
:100030000C9485000C9485000C9485000C9485002C
:100040000C94EE040C9485000C94BC040C9496045F
:100050000C9485000C9485000C9485000C9485000C
:100060000C9485000C9485000000000024002700FB
:100070002A0000000000250028002B0004040404CE
:100080000404040402020202020203030303030342
:10009000010204081020408001020408102001021F
:1000A00004081020000000080002010000030407FB
:1000B0000000000000000000420511241FBECFEF29
:1000C000D8E0DEBFCDBF11E0A0E0B1E0E2E4F5E1B1
:1000D00002C005900D92AC37B107D9F722E0ACE72A
:1000E000B1E001C01D92AA3FB207E1F710E0CDE5F3
:1000F000D0E004C02197FE010E946509CC35D107EC
:10010000C9F70E940D060C949F0A0C940000862FDC
:10011000E0919401F0919501309711F0BA010994A2
:100120000895862FE0919201F0919301309711F09C
:10013000BA0109940895862FE0919001F091910100
:10014000309711F0BA0109940895862FE0918E013D
:10015000F0918F01309711F0BA0109940895862F1C
:10016000E0918C01F0918D01309711F0BA01099462
:100170000895862FE0918A01F0918B01309711F05C
:10018000BA0109940895089508950895CF93DF93CF
:10019000FC01A081B181109701F1EC01ED91FC917E
:1001A00011970190F081E02D69EFCD0109958881CB
:1001B0009981DC01ED91FC910190F081E02D62E0EC
:1001C000099588819981DC01ED91FC910190F08184
:1001D000E02D65E0DF91CF910994DF91CF910895F3
:1001E0001F93CF93DF93182FEB0180917B029091A7
:1001F0007C026817790760F48091790290917A0205
:10020000C80FD91F188380E0DF91CF911F91089507
:10021000E091A802F091A902309711F481E0F4CFA7
:1002200081E08093780280919402909195020995E3
:1002300080917B0290917C02C817D90778F7DCCFB8
:10024000CF93DF93EC01FB0130E020E0C901880F80
:10025000991F8C179D0778F44081DB014D93BD01F8
:1002600011979181979599279795942B9C932F5F40
:100270003F4F3296EBCFC901DF91CF9108950097A0
:1002800021F0805C9F4F0C94C6000895AF92BF92FE
:10029000CF92DF92EF92FF920F931F93CF93DF9352
:1002A0006C017B018B01040F151FEB015E01AE1881
:1002B000BF08C017D10759F06991D601ED91FC91A3
:1002C0000190F081E02DC6010995892B79F7C501D0
:1002D000DF91CF911F910F91FF90EF90DF90CF9022
:1002E000BF90AF900895FC01538D448D252F30E0D1
:1002F000842F90E0821B930B541710F0CF96089533
:1003000001970895FC01918D828D981761F0A28D5F
:10031000AE0FBF2FB11D5D968C91928D9F5F9F7325
:10032000928F90E008958FEF9FEF0895FC01918DDB
:10033000828D981731F0828DE80FF11D858D90E048
:1003400008958FEF9FEF0895FC01918D228D892FE5
:1003500090E0805C9F4F821B91098F7399270895CD
:1003600089E991E00E94A40121E0892B09F420E0B1
:10037000822F089580E090E0892B29F00E94B0013F
:1003800081110C9400000895FC01A48DA80FB92FD1
:10039000B11DA35ABF4F2C91848D90E001968F73AD
:1003A0009927848FA689B7892C93A089B1898C91CC
:1003B000837080648C93938D848D981306C002881B
:1003C000F389E02D80818F7D80830895EF92FF92E5
:1003D0000F931F93CF93DF93EC0181E0888F9B8D68
:1003E0008C8D98131AC0E889F989808185FF15C022
:1003F0009FB7F894EE89FF896083E889F989808145
:100400008370806480839FBF81E090E0DF91CF9113
:100410001F910F91FF90EF900895F62E0B8D10E035
:100420000F5F1F4F0F731127E02E8C8D8E110CC0A4
:100430000FB607FCFACFE889F989808185FFF5CFEF
:10044000CE010E94C401F1CFEB8DEC0FFD2FF11D09
:10045000E35AFF4FF0829FB7F8940B8FEA89FB892C
:1004600080818062CFCFCF93DF93EC01888D88238A
:10047000B9F0AA89BB89E889F9898C9185FD03C007
:10048000808186FD0DC00FB607FCF7CF8C9185FFEC
:10049000F2CF808185FFEDCFCE010E94C401E9CF6C
:1004A000DF91CF91089590E0FC01EC55FF4F24912E
:1004B000FC01E057FF4F3491FC01E458FF4FE491F9
:1004C000EE23C9F0222339F0233001F1A8F42130C2
:1004D00019F1223029F1F0E0EE0FFF1FEE58FF4F27
:1004E000A591B4918FB7F894EC91611126C0309525
:1004F0003E233C938FBF08952730A9F02830C9F0E0
:10050000243049F7809180008F7D03C08091800066
:100510008F7780938000DFCF84B58F7784BDDBCF6A
:1005200084B58F7DFBCF8091B0008F778093B00032
:10053000D2CF8091B0008F7DF9CF3E2BDACFCF9311
:10054000DF9390E0FC01E057FF4F249184589F4FC8
:10055000FC0184918823C9F090E0880F991FFC0169
:10056000E859FF4FA591B491FC01EE58FF4FC5919A
:10057000D49161110DC09FB7F8948C91209582237E
:100580008C938881282328839FBFDF91CF91089582
:10059000623051F49FB7F8943C91822F8095832369
:1005A0008C93E8812E2BEFCF8FB7F894EC912E2B04
:1005B0002C938FBFEACF9EEF980F923110F40C94DA
:1005C0009F0208953FB7F89480918601909187012A
:1005D000A0918801B091890126B5A89B05C02F3F45
:1005E00019F00196A11DB11D3FBFBA2FA92F982F59
:1005F0008827BC01CD01620F711D811D911D42E054
:10060000660F771F881F991F4A95D1F708958F921B
:100610009F92AF92BF92CF92DF92EF92FF926B01C7
:100620007C010E94E2024B015C01C114D104E1048F
:10063000F104B9F00E94E202681979098A099B095C
:10064000683E73408105910580F321E0C21AD1080C
:10065000E108F10888EE880E83E0981EA11CB11C09
:10066000E4CFFF90EF90DF90CF90BF90AF909F903E
:100670008F9008955F926F927F928F929F92AF9228
:10068000BF92CF92DF92EF92FF920F931F93CF937F
:10069000DF935C016901DA015C90232B19F4CC240F
:1006A000CA94DC2C8A013A01660E771ED0E0C0E0C5
:1006B000F12CE12C87E0882E912CF501808191812D
:1006C000D8016C910C2E01C0660F0A94EAF76529D7
:1006D0006F77DC01ED91FC910190F081E02D09959F
:1006E000BFEFEB1AFB0AF801608170E0C4018C1BBC
:1006F0009D0B02C0759567958A95E2F7562E219657
:10070000C730D10558F1CE14DF0441F1D5018D91E8
:100710009C91652D6F77DC01ED91FC910190F0814A
:10072000E02D0995BFEFEB1AFB0A551C5524551C0B
:100730002797E6CFEC14FD0408F4BFCFDF91CF91EB
:100740001F910F91FF90EF90DF90CF90BF90AF90EF
:100750009F908F907F906F905F9008950F5F1F4FD5
:100760006016710639F7209749F3EC14FD0430F751
:10077000F5018081918161E070E001C0660FCA954A
:10078000EAF761506521DC01ED91FC910190F08167
:10079000E02DDF91CF911F910F91FF90EF90DF90AF
:1007A000CF90BF90AF909F908F907F906F905F9011
:1007B0000994CF92DF92EF92FF920F931F93CF9302
:1007C000DF93FC01E058FF4FE080EE2009F45CC0AD
:1007D000EC01C05CDF4FA881B981109709F454C0C7
:1007E000FC01EF57FF4FC080D180F60111810081DD
:1007F000ED91FC9111970190F081E02D60EFCD011A
:10080000099588819981DC01ED91FC910190F0813D
:10081000E02D69E7099588819981DC01ED91FC91D2
:100820000190F081E02D602F099588819981DC018C
:10083000ED91FC910190F081E02D612F0995F12C53
:1008400001E010E00F5F1F4FE016F10659F030E0B5
:1008500020E0A601400F511F61E070E0CE010E9430
:100860003A03F0CF88819981DC01ED91FC910190F0
:10087000F081E02D67EFDF91CF911F910F91FF90F5
:10088000EF90DF90CF900994DF91CF911F910F915E
:10089000FF90EF90DF90CF900895009711F00C94A7
:1008A000D9030895AF92BF92CF92DF92EF92FF9259
:1008B0000F931F93CF93DF93833068F5282F30E099
:1008C000A90144585E4F6A01FA01D081D617170674
:1008D00011F18B01C82FCC0FCC0FCC0FF12CE12CD8
:1008E000AA24A394B12CC5010E2C01C0880F0A9430
:1008F000EAF7682F60238D23681721F08C2F8E0D67
:100900000E945302FFEFEF1AFF0A48E0E416F104D9
:1009100051F7F6010083DF91CF911F910F91FF9066
:10092000EF90DF90CF90BF90AF9008951F920F92FD
:100930000FB60F9211242F933F934F935F936F93B2
:100940007F938F939F93AF93BF93EF93FF9389E927
:1009500091E00E94C401FF91EF91BF91AF919F91EF
:100960008F917F916F915F914F913F912F910F9058
:100970000FBE0F901F9018951F920F920FB60F92F7
:1009800011242F938F939F93EF93FF93E091A901ED
:10099000F091AA018081E091AF01F091B00182FD58
:1009A0001BC090818091B2018F5F8F732091B30142
:1009B000821741F0E091B201F0E0E756FE4F958FCB
:1009C0008093B201FF91EF919F918F912F910F90A2
:1009D0000FBE0F901F9018958081F4CF1F920F9239
:1009E0000FB60F9211242F933F938F939F93AF9342
:1009F000BF938091820190918301A0918401B09175
:100A000085013091810123E0230F2D3758F50196A0
:100A1000A11DB11D209381018093820190938301D8
:100A2000A0938401B0938501809186019091870104
:100A3000A0918801B09189010196A11DB11D8093FB
:100A4000860190938701A0938801B0938901BF919B
:100A5000AF919F918F913F912F910F900FBE0F906B
:100A60001F90189526E8230F0296A11DB11DD2CF25
:100A70001F920F920FB60F9211240F900FBE0F907E
:100A80001F901895E9E9F1E01382128288EE93E055
:100A9000A0E0B0E084839583A683B7838AE091E0E9
:100AA0009183808385EC90E09587848784EC90E047
:100AB0009787868780EC90E0918B808B81EC90E02B
:100AC000938B828B82EC90E0958B848B86EC90E00C
:100AD000978B868B118E128E138E148E86E392E086
:100AE000109277021092760290937A0280937902A4
:100AF00020E430E030937C0220937B0210927D0250
:100B000010927E021092800210927F021092810257
:100B10001092830210928202109285021092840237
:100B20001092870210928602109289021092880217
:100B300010928B0210928A0210928D0210928C02F7
:100B400010928F0210928E021092950210929402CF
:100B500010929702109296021092990210929802A7
:100B600010929B0210929A021092A9021092A8026F
:100B7000109278021092B6021092B8021092B70248
:100B80001092F50227E830E030939D0220939C02FA
:100B900021E930E030939F0220939E022BE930E060
:100BA0003093A1022093A00225EA30E03093A30203
:100BB0002093A2022FEA30E03093A5022093A402F2
:100BC00029EB30E03093A7022093A60223EC30E01B
:100BD0003093AB022093AA0224EC30E03093AD02B4
:100BE0002093AC022DE434E03093AF022093AE02A8
:100BF00090939102809390022FE331E03093B10201
:100C00002093B002909393028093920285EC90E03F
:100C10009093B3028093B2020895CF93DF9300D0F4
:100C2000CDB7DEB7789484B5826084BD84B5816029
:100C300084BD85B5826085BD85B5816085BD8091A7
:100C40006E00816080936E0010928100809181001F
:100C50008260809381008091810081608093810017
:100C6000809180008160809380008091B1008460D9
:100C70008093B1008091B00081608093B00080913A
:100C80007A00846080937A0080917A0082608093F9
:100C90007A0080917A00816080937A0080917A0056
:100CA000806880937A001092C1008AE18093B60236
:100CB0008091B7029091B8020E94070A0091B60293
:100CC00010E0C80101960E946B099093B8028093CE
:100CD000B702FC01E00FF11F108262E0F62EDC018A
:100CE000FC9225E011962C93A8014250510962E62E
:100CF00071E002960E94900A82E594E0909393013D
:100D0000809392018BED92E090938D0180938C0102
:100D1000E091A901F091AA01F082E091A901F0917E
:100D2000AA011082E091A501F091A6011082E09144
:100D3000A701F091A80180E180831092B101E091B8
:100D4000AD01F091AE0186E08083E091AB01F091BE
:100D5000AC01808180618083E091AB01F091AC01B6
:100D6000808188608083E091AB01F091AC0180814B
:100D700080688083E091AB01F091AC0180818F7D30
:100D800080838091F50281114FC061E08DE00E9467
:100D90009F0262ED70E080E090E00E94070361E056
:100DA0008DE00E94530268E270E080E090E00E94D3
:100DB000070360E08DE00E94530262ED70E080E086
:100DC00090E00E94070361E08DE00E94530268E218
:100DD00070E080E090E00E94070360E08DE00E94F8
:100DE00053026AEF70E080E090E00E94070315E094
:100DF00062ED70E080E090E00E94070361E08DE02A
:100E00000E94530268E270E080E090E00E940703D5
:100E100060E08DE00E945302115051F76DE770E0E1
:100E200080E090E00E94070389E991E09093B50289
:100E30008093B402909377028093760286E792E0E3
:100E40000E94C60086E392E00E94D90300E010E011
:100E5000BB24B39442E0E42EF12CCC24C394D12CD7
:100E600036E9832E31E0932E712C71107AC089B14E
:100E70008C7FA82ED4018C91A81601F18A2D90E0C8
:100E80009A83898380917602909177020097A1F0EE
:100E9000DC01ED91FC910190F081E02D672D6069FE
:100EA000099522E030E0AE014F5F5F4F62E070E0F5
:100EB00086E792E00E943A03F401A0827394FFEF68
:100EC0008F1A9F0A23E07212D0CF8091B4029091C2
:100ED000B502DC01ED91FC910084F185E02D0995CE
:100EE000892B09F4E6C18091B4029091B502DC012E
:100EF000ED91FC910284F385E02D09959C018F3FD3
:100F0000980719F3982F80918102882309F4AAC0C9
:100F1000973F09F096C010928102A0917902B0919A
:100F20007A026C91613709F44FC0693709F073C0D8
:100F3000E091AE02F091AF02309739F280918202D7
:100F4000909183028330910518F530E020E050E065
:100F500040E070E060E080919002909191020995EC
:100F6000B4CFB1E07B120AC083B126B18F73E0E445
:100F70002E9F90011124A82EA22A7CCF86B190E04A
:100F80009595879595958795F82FFF70AF2E72CF21
:100F9000BD016D5F7F4F03970E942001BC016D5F13
:100FA0007F4F80E00E94F000E0917902F0917A0298
:100FB0009F012D5F3F4F428150E0618170E0E091E1
:100FC000AE02F091AF02C7CF8091AA029091AB021E
:100FD000892B09F47ACFBD016F5F7F4F8091820228
:100FE0009091830201970E942001BC016F5F7F4FA7
:100FF00080E00E94F0006091790270917A026F5F48
:101000007F4FE091AA02F091AB02809196029091FD
:10101000970209955ACFE091AC02F091AD0230975A
:1010200009F453CF9D012F5F3F4F409182025091B1
:10103000830241505109809198029091990209953B
:1010400044CF6091820270918302822F0E94F0004F
:101050008091820290918302019690938302809303
:10106000820233CF60917F02709180026115710519
:1010700009F4B1C027FDAFC06150710970938002BF
:1010800060937F02822F0E94F00080917F029091F6
:101090008002892B09F019CF80917D02882309F401
:1010A00014CF803D09F483C040F4803949F1803C7D
:1010B00009F469C010927D0208CF843FE1F1853FB9
:1010C00009F44DC0803EB1F7E0919C02F0919D0281
:1010D000309781F3A0917902B0917A024C9120E887
:1010E000429FC001112411964C91480F592F511D58
:1010F00060917E0280918402909185020995DACFF9
:10110000E0919E02F0919F023097A1F2A0917902A6
:10111000B0917A024C9120E8429FC00111241196AF
:101120004C91480F592F511D60917E02809186028B
:1011300090918702E3CFE091A402F091A50230974D
:1011400009F4B8CFA0917902B0917A024C9150E0A5
:1011500011966C9180918C0290918D02CFCFE0918D
:10116000A602F091A702309709F4A4CFA0917902CA
:10117000B0917A024C9150E011966C9180918E0260
:1011800090918F02BBCFE091A002F091A102309725
:1011900009F490CFA0917902B0917A024C9150E07D
:1011A00060917E028091880290918902A7CFE091A0
:1011B000A202F091A302309709F47CCFA0917902AA
:1011C000B0917A024C9150E060917E0280918A0247
:1011D00090918B0293CF903F30F4822F8F70809349
:1011E0007E02922F907F903FF1F190F4903CB1F10C
:1011F00050F4903909F069CEF0928002E0927F02BB
:1012000090937D0262CE903D49F1903EA9F35DCE70
:10121000993F09F442C028F48CE0890F823060F3D2
:1012200054CE9F3F09F051CE1092800210927F025F
:1012300010927D0210927E0290E080E020917B026D
:1012400030917C0282179307A8F4E0917902F09123
:101250007A02E80FF91F10820196F0CFD092800237
:10126000C0927F02CDCFB092810210928302109281
:1012700082022BCE1092810210928302109282027F
:10128000E091B202F091B30280919A0290919B0298
:10129000309709F41ACE099518CEE091B002F0917A
:1012A000B102309709F411CE80919202909193028D
:1012B000F2CF0115110509F4D3CD0E94B0018823A6
:1012C00009F4CECD0E940000CBCDEE0FFF1F05909C
:1012D000F491E02D09940F931F93CF93DF93823005
:1012E000910510F482E090E0E091F802F091F902AB
:1012F00030E020E0B0E0A0E0309799F4211531050E
:1013000009F44AC0281B390B24303105D8F58A81ED
:101310009B816115710589F1FB0193838283FE0135
:1013200011C0408151810281138148175907E0F0B3
:101330004817590799F4109761F012960C93129779
:1013400013961C933296CF01DF91CF911F910F918D
:1013500008950093F8021093F902F4CF2115310596
:1013600051F04217530738F0A901DB019A01BD0182
:10137000DF01F801C1CFEF01F9CF9093F90280931B
:10138000F802CDCFFE01E20FF31F8193919322501B
:10139000310939832883D7CF2091F6023091F702A3
:1013A000232B41F420910201309103013093F70285
:1013B0002093F602209100013091010121153105A1
:1013C00041F42DB73EB74091040150910501241B13
:1013D000350BE091F602F091F702E217F307A0F463
:1013E0002E1B3F0B2817390778F0AC014E5F5F4F7B
:1013F0002417350748F04E0F5F1F5093F7024093B4
:10140000F602819391939FCFF0E0E0E09CCFCF93E1
:10141000DF930097E9F0FC01329713821282A091CA
:10142000F802B091F902ED0130E020E01097A1F44C
:1014300020813181820F931F2091F6023091F702B3
:101440002817390709F061C0F093F702E093F6021C
:10145000DF91CF910895EA01CE17DF07E8F54A81C1
:101460005B819E0141155105B1F7E901FB83EA83D8
:1014700049915991C40FD51FEC17FD0761F4808184
:1014800091810296840F951FE90199838883828157
:1014900093819B838A83F0E0E0E012968D919C918A
:1014A00013970097B9F52D913C911197CD010296B4
:1014B000820F931F2091F6023091F7022817390707
:1014C00039F6309751F51092F9021092F802B09364
:1014D000F702A093F602BCCFD383C283408151812F
:1014E000840F951FC817D90761F44E5F5F4F88813D
:1014F0009981480F591F518340838A819B8193832F
:1015000082832115310509F0B0CFF093F902E09301
:10151000F8029ECFFD01DC01C0CF13821282D7CF2B
:10152000FB01DC014150504048F001900D92002039
:10153000C9F701C01D9241505040E0F70895F8945A
:10154000FFCF0000FA02800000000000E601460123
:1015500073013302A40182019601433A5C5573651D
:1015600072735C5669746F725C4465736B746F70F0
:101570005C666163756C646164655C5443435C499B
:101580006D706C656D656E7461C3A7C3A36F5C53AA
:10159000696D706C654469676974616C4669726DE8
:1015A0006174615C53696D706C65446967697461ED
:0E15B0006C4669726D6174612E696E6F000089
:107E0000112484B714BE81FFF0D085E080938100F7
:107E100082E08093C00088E18093C10086E0809377
:107E2000C20080E18093C4008EE0C9D0259A86E02C
:107E300020E33CEF91E0309385002093840096BBD3
:107E4000B09BFECF1D9AA8958150A9F7CC24DD24C4
:107E500088248394B5E0AB2EA1E19A2EF3E0BF2EE7
:107E6000A2D0813461F49FD0082FAFD0023811F036
:107E7000013811F484E001C083E08DD089C08234E0
:107E800011F484E103C0853419F485E0A6D080C0E4
:107E9000853579F488D0E82EFF2485D0082F10E0AE
:107EA000102F00270E291F29000F111F8ED06801E7
:107EB0006FC0863521F484E090D080E0DECF843638
:107EC00009F040C070D06FD0082F6DD080E0C81688
:107ED00080E7D80618F4F601B7BEE895C0E0D1E017
:107EE00062D089930C17E1F7F0E0CF16F0E7DF06D8
:107EF00018F0F601B7BEE89568D007B600FCFDCFD4
:107F0000A601A0E0B1E02C9130E011968C91119780
:107F100090E0982F8827822B932B1296FA010C0160
:107F200087BEE89511244E5F5F4FF1E0A038BF0790
:107F300051F7F601A7BEE89507B600FCFDCF97BE46
:107F4000E89526C08437B1F42ED02DD0F82E2BD052
:107F50003CD0F601EF2C8F010F5F1F4F84911BD097
:107F6000EA94F801C1F70894C11CD11CFA94CF0C13
:107F7000D11C0EC0853739F428D08EE10CD085E9AC
:107F80000AD08FE07ACF813511F488E018D01DD067
:107F900080E101D065CF982F8091C00085FFFCCF94
:107FA0009093C60008958091C00087FFFCCF809118
:107FB000C00084FD01C0A8958091C6000895E0E648
:107FC000F0E098E1908380830895EDDF803219F02E
:107FD00088E0F5DFFFCF84E1DECF1F93182FE3DFCA
:107FE0001150E9F7F2DF1F91089580E0E8DFEE27F6
:047FF000FF270994CA
:027FFE00040479
:00000001FF
